{
  "_format": "hh-sol-artifact-1",
  "contractName": "Pyramid",
  "sourceName": "contracts/Pyramid.sol",
  "abi": [
    {
      "inputs": [],
      "stateMutability": "nonpayable",
      "type": "constructor"
    },
    {
      "anonymous": false,
      "inputs": [
        {
          "indexed": false,
          "internalType": "uint256",
          "name": "amount",
          "type": "uint256"
        }
      ],
      "name": "Bought",
      "type": "event"
    },
    {
      "anonymous": false,
      "inputs": [
        {
          "indexed": false,
          "internalType": "uint256",
          "name": "amount",
          "type": "uint256"
        }
      ],
      "name": "Sold",
      "type": "event"
    },
    {
      "inputs": [
        {
          "internalType": "uint256",
          "name": "index",
          "type": "uint256"
        },
        {
          "internalType": "uint256",
          "name": "amount",
          "type": "uint256"
        }
      ],
      "name": "buy",
      "outputs": [],
      "stateMutability": "payable",
      "type": "function"
    },
    {
      "inputs": [
        {
          "internalType": "uint256",
          "name": "key",
          "type": "uint256"
        }
      ],
      "name": "getPriceToJoin",
      "outputs": [
        {
          "internalType": "uint256",
          "name": "price",
          "type": "uint256"
        }
      ],
      "stateMutability": "view",
      "type": "function"
    },
    {
      "inputs": [
        {
          "internalType": "uint256",
          "name": "price",
          "type": "uint256"
        }
      ],
      "name": "invite",
      "outputs": [
        {
          "internalType": "bool",
          "name": "",
          "type": "bool"
        }
      ],
      "stateMutability": "nonpayable",
      "type": "function"
    },
    {
      "inputs": [
        {
          "internalType": "string",
          "name": "name",
          "type": "string"
        },
        {
          "internalType": "uint256",
          "name": "inviteKey",
          "type": "uint256"
        }
      ],
      "name": "join",
      "outputs": [],
      "stateMutability": "payable",
      "type": "function"
    },
    {
      "inputs": [
        {
          "internalType": "uint256",
          "name": "",
          "type": "uint256"
        }
      ],
      "name": "key2Invite",
      "outputs": [
        {
          "internalType": "address",
          "name": "creator",
          "type": "address"
        },
        {
          "internalType": "uint256",
          "name": "key",
          "type": "uint256"
        },
        {
          "internalType": "uint256",
          "name": "price",
          "type": "uint256"
        }
      ],
      "stateMutability": "view",
      "type": "function"
    },
    {
      "inputs": [
        {
          "internalType": "uint256",
          "name": "key",
          "type": "uint256"
        }
      ],
      "name": "keyExists",
      "outputs": [
        {
          "internalType": "bool",
          "name": "",
          "type": "bool"
        }
      ],
      "stateMutability": "view",
      "type": "function"
    },
    {
      "inputs": [
        {
          "internalType": "uint256",
          "name": "amount",
          "type": "uint256"
        }
      ],
      "name": "mint",
      "outputs": [],
      "stateMutability": "nonpayable",
      "type": "function"
    },
    {
      "inputs": [],
      "name": "myAncestors",
      "outputs": [
        {
          "internalType": "string",
          "name": "name",
          "type": "string"
        }
      ],
      "stateMutability": "view",
      "type": "function"
    },
    {
      "inputs": [],
      "name": "numSellCalls",
      "outputs": [
        {
          "internalType": "uint256",
          "name": "",
          "type": "uint256"
        }
      ],
      "stateMutability": "view",
      "type": "function"
    },
    {
      "inputs": [
        {
          "internalType": "address",
          "name": "",
          "type": "address"
        }
      ],
      "name": "participants",
      "outputs": [
        {
          "internalType": "address",
          "name": "self",
          "type": "address"
        },
        {
          "internalType": "address",
          "name": "father",
          "type": "address"
        },
        {
          "internalType": "string",
          "name": "name",
          "type": "string"
        }
      ],
      "stateMutability": "view",
      "type": "function"
    },
    {
      "inputs": [],
      "name": "root",
      "outputs": [
        {
          "internalType": "address",
          "name": "",
          "type": "address"
        }
      ],
      "stateMutability": "view",
      "type": "function"
    },
    {
      "inputs": [
        {
          "internalType": "uint256",
          "name": "price",
          "type": "uint256"
        },
        {
          "internalType": "uint256",
          "name": "amount",
          "type": "uint256"
        },
        {
          "internalType": "bool",
          "name": "forPar",
          "type": "bool"
        }
      ],
      "name": "sellCall",
      "outputs": [],
      "stateMutability": "nonpayable",
      "type": "function"
    },
    {
      "inputs": [
        {
          "internalType": "uint256",
          "name": "",
          "type": "uint256"
        }
      ],
      "name": "sellCalls",
      "outputs": [
        {
          "internalType": "address",
          "name": "creator",
          "type": "address"
        },
        {
          "internalType": "uint256",
          "name": "price",
          "type": "uint256"
        },
        {
          "internalType": "uint256",
          "name": "amount",
          "type": "uint256"
        },
        {
          "internalType": "bool",
          "name": "onlyForPar",
          "type": "bool"
        }
      ],
      "stateMutability": "view",
      "type": "function"
    },
    {
      "inputs": [],
      "name": "token",
      "outputs": [
        {
          "internalType": "contract MyToken",
          "name": "",
          "type": "address"
        }
      ],
      "stateMutability": "view",
      "type": "function"
    }
  ],
  "bytecode": "0x60806040523480156200001157600080fd5b5064e8d4a5100060405162000026906200026b565b6200003291906200033a565b604051809103906000f0801580156200004f573d6000803e3d6000fd5b506000806101000a81548173ffffffffffffffffffffffffffffffffffffffff021916908373ffffffffffffffffffffffffffffffffffffffff16021790555033600160006101000a81548173ffffffffffffffffffffffffffffffffffffffff021916908373ffffffffffffffffffffffffffffffffffffffff16021790555060405180606001604052803373ffffffffffffffffffffffffffffffffffffffff168152602001600160009054906101000a900473ffffffffffffffffffffffffffffffffffffffff1673ffffffffffffffffffffffffffffffffffffffff1681526020016040518060400160405280600481526020017f726f6f7400000000000000000000000000000000000000000000000000000000815250815250600360003373ffffffffffffffffffffffffffffffffffffffff1673ffffffffffffffffffffffffffffffffffffffff16815260200190815260200160002060008201518160000160006101000a81548173ffffffffffffffffffffffffffffffffffffffff021916908373ffffffffffffffffffffffffffffffffffffffff16021790555060208201518160010160006101000a81548173ffffffffffffffffffffffffffffffffffffffff021916908373ffffffffffffffffffffffffffffffffffffffff16021790555060408201518160020190805190602001906200025992919062000279565b509050506001600281905550620003da565b6110cc806200262c83390190565b828054620002879062000375565b90600052602060002090601f016020900481019282620002ab5760008555620002f7565b82601f10620002c657805160ff1916838001178555620002f7565b82800160010185558215620002f7579182015b82811115620002f6578251825591602001919060010190620002d9565b5b5090506200030691906200030a565b5090565b5b80821115620003255760008160009055506001016200030b565b5090565b620003348162000361565b82525050565b600060208201905062000351600083018462000329565b92915050565b6000819050919050565b60006200036e8262000357565b9050919050565b600060028204905060018216806200038e57607f821691505b60208210811415620003a557620003a4620003ab565b5b50919050565b7f4e487b7100000000000000000000000000000000000000000000000000000000600052602260045260246000fd5b61224280620003ea6000396000f3fe6080604052600436106100dd5760003560e01c8063977e55091161007f578063d6febde811610059578063d6febde8146102dc578063ebf0c717146102f8578063edabe43914610323578063fc0c546a14610362576100dd565b8063977e55091461025a57806399b3236014610297578063a0712d68146102b3576100dd565b80634a993cc7116100bb5780634a993cc7146101875780634aafff8a146101c7578063712d87ba146101f257806382d1eac81461021d576100dd565b806309e69ede146100e2578063344f4b3e1461012157806339f07f2d1461014a575b600080fd5b3480156100ee57600080fd5b50610109600480360381019061010491906117e8565b61038d565b60405161011893929190611ad3565b60405180910390f35b34801561012d57600080fd5b506101486004803603810190610143919061191c565b61047f565b005b34801561015657600080fd5b50610171600480360381019061016c919061188e565b6106ee565b60405161017e9190611ce5565b60405180910390f35b34801561019357600080fd5b506101ae60048036038101906101a9919061188e565b610726565b6040516101be9493929190611ba8565b60405180910390f35b3480156101d357600080fd5b506101dc610793565b6040516101e99190611c23565b60405180910390f35b3480156101fe57600080fd5b506102076108cd565b6040516102149190611ce5565b60405180910390f35b34801561022957600080fd5b50610244600480360381019061023f919061188e565b6108d3565b6040516102519190611bed565b60405180910390f35b34801561026657600080fd5b50610281600480360381019061027c919061188e565b610948565b60405161028e9190611bed565b60405180910390f35b6102b160048036038101906102ac919061183a565b610b26565b005b3480156102bf57600080fd5b506102da60048036038101906102d5919061188e565b610f68565b005b6102f660048036038101906102f191906118e0565b61111e565b005b34801561030457600080fd5b5061030d611598565b60405161031a9190611a8f565b60405180910390f35b34801561032f57600080fd5b5061034a6004803603810190610345919061188e565b6115be565b60405161035993929190611b71565b60405180910390f35b34801561036e57600080fd5b50610377611608565b6040516103849190611c08565b60405180910390f35b60036020528060005260406000206000915090508060000160009054906101000a900473ffffffffffffffffffffffffffffffffffffffff16908060010160009054906101000a900473ffffffffffffffffffffffffffffffffffffffff16908060020180546103fc90611f35565b80601f016020809104026020016040519081016040528092919081815260200182805461042890611f35565b80156104755780601f1061044a57610100808354040283529160200191610475565b820191906000526020600020905b81548152906001019060200180831161045857829003601f168201915b5050505050905083565b60008060009054906101000a900473ffffffffffffffffffffffffffffffffffffffff1673ffffffffffffffffffffffffffffffffffffffff166370a08231336040518263ffffffff1660e01b81526004016104db9190611a8f565b60206040518083038186803b1580156104f357600080fd5b505afa158015610507573d6000803e3d6000fd5b505050506040513d601f19601f8201168201806040525081019061052b91906118b7565b905060008054906101000a900473ffffffffffffffffffffffffffffffffffffffff1673ffffffffffffffffffffffffffffffffffffffff1663dd62ed3e33306040518363ffffffff1660e01b8152600401610588929190611aaa565b60206040518083038186803b1580156105a057600080fd5b505afa1580156105b4573d6000803e3d6000fd5b505050506040513d601f19601f820116820180604052508101906105d891906118b7565b816105e39190611e53565b8311156105ef57600080fd5b600560405180608001604052803373ffffffffffffffffffffffffffffffffffffffff168152602001868152602001858152602001841515815250908060018154018082558091505060019003906000526020600020906004020160009091909190915060008201518160000160006101000a81548173ffffffffffffffffffffffffffffffffffffffff021916908373ffffffffffffffffffffffffffffffffffffffff160217905550602082015181600101556040820151816002015560608201518160030160006101000a81548160ff0219169083151502179055505050600660008154809291906106e390611f98565b919050555050505050565b60006106f9826108d3565b1561071c5760046000838152602001908152602001600020600201549050610721565b600090505b919050565b6005818154811061073657600080fd5b90600052602060002090600402016000915090508060000160009054906101000a900473ffffffffffffffffffffffffffffffffffffffff16908060010154908060020154908060030160009054906101000a900460ff16905084565b60606000600360003373ffffffffffffffffffffffffffffffffffffffff1673ffffffffffffffffffffffffffffffffffffffff16815260200190815260200160002060010160009054906101000a900473ffffffffffffffffffffffffffffffffffffffff169050600360008273ffffffffffffffffffffffffffffffffffffffff1673ffffffffffffffffffffffffffffffffffffffff168152602001908152602001600020600201805461084990611f35565b80601f016020809104026020016040519081016040528092919081815260200182805461087590611f35565b80156108c25780601f10610897576101008083540402835291602001916108c2565b820191906000526020600020905b8154815290600101906020018083116108a557829003601f168201915b505050505091505090565b60065481565b600080600073ffffffffffffffffffffffffffffffffffffffff166004600085815260200190815260200160002060000160009054906101000a900473ffffffffffffffffffffffffffffffffffffffff1673ffffffffffffffffffffffffffffffffffffffff161415905080915050919050565b60008082101561098d576040517f08c379a000000000000000000000000000000000000000000000000000000000815260040161098490611ca5565b60405180910390fd5b600073ffffffffffffffffffffffffffffffffffffffff16600360003373ffffffffffffffffffffffffffffffffffffffff1673ffffffffffffffffffffffffffffffffffffffff16815260200190815260200160002060000160009054906101000a900473ffffffffffffffffffffffffffffffffffffffff1673ffffffffffffffffffffffffffffffffffffffff161415610a5f576040517f08c379a0000000000000000000000000000000000000000000000000000000008152600401610a5690611c65565b60405180910390fd5b60405180606001604052803373ffffffffffffffffffffffffffffffffffffffff16815260200160025481526020018381525060046000600254815260200190815260200160002060008201518160000160006101000a81548173ffffffffffffffffffffffffffffffffffffffff021916908373ffffffffffffffffffffffffffffffffffffffff160217905550602082015181600101556040820151816002015590505060026000815480929190610b1890611f98565b919050555060019050919050565b600060046000838152602001908152602001600020905060008160000160009054906101000a900473ffffffffffffffffffffffffffffffffffffffff1690508160020154341015610bad576040517f08c379a0000000000000000000000000000000000000000000000000000000008152600401610ba490611c85565b60405180910390fd5b600073ffffffffffffffffffffffffffffffffffffffff16600360003373ffffffffffffffffffffffffffffffffffffffff1673ffffffffffffffffffffffffffffffffffffffff16815260200190815260200160002060000160009054906101000a900473ffffffffffffffffffffffffffffffffffffffff1673ffffffffffffffffffffffffffffffffffffffff1614610c7e576040517f08c379a0000000000000000000000000000000000000000000000000000000008152600401610c7590611c45565b60405180910390fd5b610c87836108d3565b610cc6576040517f08c379a0000000000000000000000000000000000000000000000000000000008152600401610cbd90611cc5565b60405180910390fd5b60405180606001604052803373ffffffffffffffffffffffffffffffffffffffff1681526020018273ffffffffffffffffffffffffffffffffffffffff16815260200185815250600360003373ffffffffffffffffffffffffffffffffffffffff1673ffffffffffffffffffffffffffffffffffffffff16815260200190815260200160002060008201518160000160006101000a81548173ffffffffffffffffffffffffffffffffffffffff021916908373ffffffffffffffffffffffffffffffffffffffff16021790555060208201518160010160006101000a81548173ffffffffffffffffffffffffffffffffffffffff021916908373ffffffffffffffffffffffffffffffffffffffff1602179055506040820151816002019080519060200190610df6929190611674565b50905050600034905060005b600160009054906101000a900473ffffffffffffffffffffffffffffffffffffffff1673ffffffffffffffffffffffffffffffffffffffff168373ffffffffffffffffffffffffffffffffffffffff1614610f1957610e608261162c565b80935081925050508273ffffffffffffffffffffffffffffffffffffffff166108fc829081150290604051600060405180830381858888f19350505050158015610eae573d6000803e3d6000fd5b50600360008473ffffffffffffffffffffffffffffffffffffffff1673ffffffffffffffffffffffffffffffffffffffff16815260200190815260200160002060010160009054906101000a900473ffffffffffffffffffffffffffffffffffffffff169250610e02565b8273ffffffffffffffffffffffffffffffffffffffff166108fc839081150290604051600060405180830381858888f19350505050158015610f5f573d6000803e3d6000fd5b50505050505050565b600160009054906101000a900473ffffffffffffffffffffffffffffffffffffffff1673ffffffffffffffffffffffffffffffffffffffff163373ffffffffffffffffffffffffffffffffffffffff1614610fc257600080fd5b60008054906101000a900473ffffffffffffffffffffffffffffffffffffffff1673ffffffffffffffffffffffffffffffffffffffff1663a0712d68826040518263ffffffff1660e01b815260040161101b9190611ce5565b60006040518083038186803b15801561103357600080fd5b505afa158015611047573d6000803e3d6000fd5b5050505060008054906101000a900473ffffffffffffffffffffffffffffffffffffffff1673ffffffffffffffffffffffffffffffffffffffff1663a9059cbb600160009054906101000a900473ffffffffffffffffffffffffffffffffffffffff16836040518363ffffffff1660e01b81526004016110c8929190611b48565b602060405180830381600087803b1580156110e257600080fd5b505af11580156110f6573d6000803e3d6000fd5b505050506040513d601f19601f8201168201806040525081019061111a9190611811565b5050565b60006005838154811061115a577f4e487b7100000000000000000000000000000000000000000000000000000000600052603260045260246000fd5b9060005260206000209060040201905060008160010154905060008260000160009054906101000a900473ffffffffffffffffffffffffffffffffffffffff16905060008360030160009054906101000a900460ff169050801561128b57600073ffffffffffffffffffffffffffffffffffffffff16600360003373ffffffffffffffffffffffffffffffffffffffff1673ffffffffffffffffffffffffffffffffffffffff16815260200190815260200160002060000160009054906101000a900473ffffffffffffffffffffffffffffffffffffffff1673ffffffffffffffffffffffffffffffffffffffff16141561128a576040517f08c379a000000000000000000000000000000000000000000000000000000000815260040161128190611c65565b60405180910390fd5b5b3485846112989190611df9565b146112a257600080fd5b60008054906101000a900473ffffffffffffffffffffffffffffffffffffffff1673ffffffffffffffffffffffffffffffffffffffff166370a08231836040518263ffffffff1660e01b81526004016112fb9190611a8f565b60206040518083038186803b15801561131357600080fd5b505afa158015611327573d6000803e3d6000fd5b505050506040513d601f19601f8201168201806040525081019061134b91906118b7565b85111561135757600080fd5b8484600201600082825461136b9190611e53565b9250508190555060008054906101000a900473ffffffffffffffffffffffffffffffffffffffff1673ffffffffffffffffffffffffffffffffffffffff166323b872dd8333886040518463ffffffff1660e01b81526004016113cf93929190611b11565b602060405180830381600087803b1580156113e957600080fd5b505af11580156113fd573d6000803e3d6000fd5b505050506040513d601f19601f820116820180604052508101906114219190611811565b506000829050600034905060005b600160009054906101000a900473ffffffffffffffffffffffffffffffffffffffff1673ffffffffffffffffffffffffffffffffffffffff168373ffffffffffffffffffffffffffffffffffffffff16146115465761148d8261162c565b80935081925050508273ffffffffffffffffffffffffffffffffffffffff166108fc829081150290604051600060405180830381858888f193505050501580156114db573d6000803e3d6000fd5b50600360008473ffffffffffffffffffffffffffffffffffffffff1673ffffffffffffffffffffffffffffffffffffffff16815260200190815260200160002060010160009054906101000a900473ffffffffffffffffffffffffffffffffffffffff16925061142f565b8273ffffffffffffffffffffffffffffffffffffffff166108fc839081150290604051600060405180830381858888f1935050505015801561158c573d6000803e3d6000fd5b50505050505050505050565b600160009054906101000a900473ffffffffffffffffffffffffffffffffffffffff1681565b60046020528060005260406000206000915090508060000160009054906101000a900473ffffffffffffffffffffffffffffffffffffffff16908060010154908060020154905083565b60008054906101000a900473ffffffffffffffffffffffffffffffffffffffff1681565b600080600060028461163e9190611dc8565b9050600060028261164f9190611df9565b8561165a9190611e53565b905080826116689190611d72565b82935093505050915091565b82805461168090611f35565b90600052602060002090601f0160209004810192826116a257600085556116e9565b82601f106116bb57805160ff19168380011785556116e9565b828001600101855582156116e9579182015b828111156116e85782518255916020019190600101906116cd565b5b5090506116f691906116fa565b5090565b5b808211156117135760008160009055506001016116fb565b5090565b600061172a61172584611d25565b611d00565b90508281526020810184848401111561174257600080fd5b61174d848285611ef3565b509392505050565b600081359050611764816121c7565b92915050565b600081359050611779816121de565b92915050565b60008151905061178e816121de565b92915050565b600082601f8301126117a557600080fd5b81356117b5848260208601611717565b91505092915050565b6000813590506117cd816121f5565b92915050565b6000815190506117e2816121f5565b92915050565b6000602082840312156117fa57600080fd5b600061180884828501611755565b91505092915050565b60006020828403121561182357600080fd5b60006118318482850161177f565b91505092915050565b6000806040838503121561184d57600080fd5b600083013567ffffffffffffffff81111561186757600080fd5b61187385828601611794565b9250506020611884858286016117be565b9150509250929050565b6000602082840312156118a057600080fd5b60006118ae848285016117be565b91505092915050565b6000602082840312156118c957600080fd5b60006118d7848285016117d3565b91505092915050565b600080604083850312156118f357600080fd5b6000611901858286016117be565b9250506020611912858286016117be565b9150509250929050565b60008060006060848603121561193157600080fd5b600061193f868287016117be565b9350506020611950868287016117be565b92505060406119618682870161176a565b9150509250925092565b61197481611e87565b82525050565b61198381611e99565b82525050565b61199281611ecf565b82525050565b60006119a382611d56565b6119ad8185611d61565b93506119bd818560208601611f02565b6119c68161209d565b840191505092915050565b60006119de602583611d61565b91506119e9826120ae565b604082019050919050565b6000611a01601883611d61565b9150611a0c826120fd565b602082019050919050565b6000611a24603683611d61565b9150611a2f82612126565b604082019050919050565b6000611a47601f83611d61565b9150611a5282612175565b602082019050919050565b6000611a6a601283611d61565b9150611a758261219e565b602082019050919050565b611a8981611ec5565b82525050565b6000602082019050611aa4600083018461196b565b92915050565b6000604082019050611abf600083018561196b565b611acc602083018461196b565b9392505050565b6000606082019050611ae8600083018661196b565b611af5602083018561196b565b8181036040830152611b078184611998565b9050949350505050565b6000606082019050611b26600083018661196b565b611b33602083018561196b565b611b406040830184611a80565b949350505050565b6000604082019050611b5d600083018561196b565b611b6a6020830184611a80565b9392505050565b6000606082019050611b86600083018661196b565b611b936020830185611a80565b611ba06040830184611a80565b949350505050565b6000608082019050611bbd600083018761196b565b611bca6020830186611a80565b611bd76040830185611a80565b611be4606083018461197a565b95945050505050565b6000602082019050611c02600083018461197a565b92915050565b6000602082019050611c1d6000830184611989565b92915050565b60006020820190508181036000830152611c3d8184611998565b905092915050565b60006020820190508181036000830152611c5e816119d1565b9050919050565b60006020820190508181036000830152611c7e816119f4565b9050919050565b60006020820190508181036000830152611c9e81611a17565b9050919050565b60006020820190508181036000830152611cbe81611a3a565b9050919050565b60006020820190508181036000830152611cde81611a5d565b9050919050565b6000602082019050611cfa6000830184611a80565b92915050565b6000611d0a611d1b565b9050611d168282611f67565b919050565b6000604051905090565b600067ffffffffffffffff821115611d4057611d3f61206e565b5b611d498261209d565b9050602081019050919050565b600081519050919050565b600082825260208201905092915050565b6000611d7d82611ec5565b9150611d8883611ec5565b9250827fffffffffffffffffffffffffffffffffffffffffffffffffffffffffffffffff03821115611dbd57611dbc611fe1565b5b828201905092915050565b6000611dd382611ec5565b9150611dde83611ec5565b925082611dee57611ded612010565b5b828204905092915050565b6000611e0482611ec5565b9150611e0f83611ec5565b9250817fffffffffffffffffffffffffffffffffffffffffffffffffffffffffffffffff0483118215151615611e4857611e47611fe1565b5b828202905092915050565b6000611e5e82611ec5565b9150611e6983611ec5565b925082821015611e7c57611e7b611fe1565b5b828203905092915050565b6000611e9282611ea5565b9050919050565b60008115159050919050565b600073ffffffffffffffffffffffffffffffffffffffff82169050919050565b6000819050919050565b6000611eda82611ee1565b9050919050565b6000611eec82611ea5565b9050919050565b82818337600083830152505050565b60005b83811015611f20578082015181840152602081019050611f05565b83811115611f2f576000848401525b50505050565b60006002820490506001821680611f4d57607f821691505b60208210811415611f6157611f6061203f565b5b50919050565b611f708261209d565b810181811067ffffffffffffffff82111715611f8f57611f8e61206e565b5b80604052505050565b6000611fa382611ec5565b91507fffffffffffffffffffffffffffffffffffffffffffffffffffffffffffffffff821415611fd657611fd5611fe1565b5b600182019050919050565b7f4e487b7100000000000000000000000000000000000000000000000000000000600052601160045260246000fd5b7f4e487b7100000000000000000000000000000000000000000000000000000000600052601260045260246000fd5b7f4e487b7100000000000000000000000000000000000000000000000000000000600052602260045260246000fd5b7f4e487b7100000000000000000000000000000000000000000000000000000000600052604160045260246000fd5b6000601f19601f8301169050919050565b7f53656e6465722063616e277420616c726561647920657869737420696e20707960008201527f72616d6964000000000000000000000000000000000000000000000000000000602082015250565b7f53656e646572206973206e6f7420696e20707972616d69640000000000000000600082015250565b7f6d73672e76616c7565206d7573742062652067726561746572207468616e206960008201527f6e7669746174696f6e20707269636520696e2077656900000000000000000000602082015250565b7f5072696365206e6565647320746f20626520626967676572207468616e203000600082015250565b7f6b657920646f6573206e6f742065786973740000000000000000000000000000600082015250565b6121d081611e87565b81146121db57600080fd5b50565b6121e781611e99565b81146121f257600080fd5b50565b6121fe81611ec5565b811461220957600080fd5b5056fea2646970667358221220ef2cc656dd19589daabf5e14f551099bc3a5593534b85ba6234da3cbb3a3243d64736f6c63430008040033608060405234801561001057600080fd5b506040516110cc3803806110cc833981810160405281019061003291906100da565b336000806101000a81548173ffffffffffffffffffffffffffffffffffffffff021916908373ffffffffffffffffffffffffffffffffffffffff16021790555080600381905550600354600160003373ffffffffffffffffffffffffffffffffffffffff1673ffffffffffffffffffffffffffffffffffffffff1681526020019081526020016000208190555050610124565b6000815190506100d48161010d565b92915050565b6000602082840312156100ec57600080fd5b60006100fa848285016100c5565b91505092915050565b6000819050919050565b61011681610103565b811461012157600080fd5b50565b610f99806101336000396000f3fe608060405234801561001057600080fd5b50600436106100a95760003560e01c8063313ce56711610071578063313ce5671461016857806370a082311461018657806395d89b41146101b6578063a0712d68146101d4578063a9059cbb146101f0578063dd62ed3e14610220576100a9565b806306fdde03146100ae57806307546172146100cc578063095ea7b3146100ea57806318160ddd1461011a57806323b872dd14610138575b600080fd5b6100b6610250565b6040516100c39190610d6f565b60405180910390f35b6100d4610289565b6040516100e19190610d39565b60405180910390f35b61010460048036038101906100ff9190610c5f565b6102ad565b6040516101119190610d54565b60405180910390f35b61012261039f565b60405161012f9190610d91565b60405180910390f35b610152600480360381019061014d9190610c10565b6103a9565b60405161015f9190610d54565b60405180910390f35b610170610729565b60405161017d9190610dac565b60405180910390f35b6101a0600480360381019061019b9190610bab565b61072e565b6040516101ad9190610d91565b60405180910390f35b6101be610777565b6040516101cb9190610d6f565b60405180910390f35b6101ee60048036038101906101e99190610c9b565b6107b0565b005b61020a60048036038101906102059190610c5f565b610874565b6040516102179190610d54565b60405180910390f35b61023a60048036038101906102359190610bd4565b610a5b565b6040516102479190610d91565b60405180910390f35b6040518060400160405280600d81526020017f5368616d706f6f20546f6b656e0000000000000000000000000000000000000081525081565b60008054906101000a900473ffffffffffffffffffffffffffffffffffffffff1681565b600081600260003373ffffffffffffffffffffffffffffffffffffffff1673ffffffffffffffffffffffffffffffffffffffff16815260200190815260200160002060008573ffffffffffffffffffffffffffffffffffffffff1673ffffffffffffffffffffffffffffffffffffffff168152602001908152602001600020819055508273ffffffffffffffffffffffffffffffffffffffff163373ffffffffffffffffffffffffffffffffffffffff167f8c5be1e5ebec7d5bd14f71427d1e84f3dd0314c0f7b2291e5b200ac8c7c3b9258460405161038d9190610d91565b60405180910390a36001905092915050565b6000600354905090565b6000600160008573ffffffffffffffffffffffffffffffffffffffff1673ffffffffffffffffffffffffffffffffffffffff168152602001908152602001600020548211156103f757600080fd5b600260008573ffffffffffffffffffffffffffffffffffffffff1673ffffffffffffffffffffffffffffffffffffffff16815260200190815260200160002060003373ffffffffffffffffffffffffffffffffffffffff1673ffffffffffffffffffffffffffffffffffffffff1681526020019081526020016000205482111561048057600080fd5b6104d282600160008773ffffffffffffffffffffffffffffffffffffffff1673ffffffffffffffffffffffffffffffffffffffff16815260200190815260200160002054610ae290919063ffffffff16565b600160008673ffffffffffffffffffffffffffffffffffffffff1673ffffffffffffffffffffffffffffffffffffffff168152602001908152602001600020819055506105a482600260008773ffffffffffffffffffffffffffffffffffffffff1673ffffffffffffffffffffffffffffffffffffffff16815260200190815260200160002060003373ffffffffffffffffffffffffffffffffffffffff1673ffffffffffffffffffffffffffffffffffffffff16815260200190815260200160002054610ae290919063ffffffff16565b600260008673ffffffffffffffffffffffffffffffffffffffff1673ffffffffffffffffffffffffffffffffffffffff16815260200190815260200160002060003373ffffffffffffffffffffffffffffffffffffffff1673ffffffffffffffffffffffffffffffffffffffff1681526020019081526020016000208190555061067682600160008673ffffffffffffffffffffffffffffffffffffffff1673ffffffffffffffffffffffffffffffffffffffff16815260200190815260200160002054610b2f90919063ffffffff16565b600160008573ffffffffffffffffffffffffffffffffffffffff1673ffffffffffffffffffffffffffffffffffffffff168152602001908152602001600020819055508273ffffffffffffffffffffffffffffffffffffffff168473ffffffffffffffffffffffffffffffffffffffff167fddf252ad1be2c89b69c2b068fc378daa952ba7f163c4a11628f55a4df523b3ef846040516107169190610d91565b60405180910390a3600190509392505050565b600181565b6000600160008373ffffffffffffffffffffffffffffffffffffffff1673ffffffffffffffffffffffffffffffffffffffff168152602001908152602001600020549050919050565b6040518060400160405280600781526020017f5348414d504f4f0000000000000000000000000000000000000000000000000081525081565b60008054906101000a900473ffffffffffffffffffffffffffffffffffffffff1673ffffffffffffffffffffffffffffffffffffffff163373ffffffffffffffffffffffffffffffffffffffff161461080857600080fd5b61085a81600160003373ffffffffffffffffffffffffffffffffffffffff1673ffffffffffffffffffffffffffffffffffffffff16815260200190815260200160002054610b2f90919063ffffffff16565b5061087081600354610b2f90919063ffffffff16565b5050565b6000600160003373ffffffffffffffffffffffffffffffffffffffff1673ffffffffffffffffffffffffffffffffffffffff168152602001908152602001600020548211156108c257600080fd5b61091482600160003373ffffffffffffffffffffffffffffffffffffffff1673ffffffffffffffffffffffffffffffffffffffff16815260200190815260200160002054610ae290919063ffffffff16565b600160003373ffffffffffffffffffffffffffffffffffffffff1673ffffffffffffffffffffffffffffffffffffffff168152602001908152602001600020819055506109a982600160008673ffffffffffffffffffffffffffffffffffffffff1673ffffffffffffffffffffffffffffffffffffffff16815260200190815260200160002054610b2f90919063ffffffff16565b600160008573ffffffffffffffffffffffffffffffffffffffff1673ffffffffffffffffffffffffffffffffffffffff168152602001908152602001600020819055508273ffffffffffffffffffffffffffffffffffffffff163373ffffffffffffffffffffffffffffffffffffffff167fddf252ad1be2c89b69c2b068fc378daa952ba7f163c4a11628f55a4df523b3ef84604051610a499190610d91565b60405180910390a36001905092915050565b6000600260008473ffffffffffffffffffffffffffffffffffffffff1673ffffffffffffffffffffffffffffffffffffffff16815260200190815260200160002060008373ffffffffffffffffffffffffffffffffffffffff1673ffffffffffffffffffffffffffffffffffffffff16815260200190815260200160002054905092915050565b600082821115610b1b577f4e487b7100000000000000000000000000000000000000000000000000000000600052600160045260246000fd5b8183610b279190610e39565b905092915050565b6000808284610b3e9190610de3565b905083811015610b77577f4e487b7100000000000000000000000000000000000000000000000000000000600052600160045260246000fd5b8091505092915050565b600081359050610b9081610f35565b92915050565b600081359050610ba581610f4c565b92915050565b600060208284031215610bbd57600080fd5b6000610bcb84828501610b81565b91505092915050565b60008060408385031215610be757600080fd5b6000610bf585828601610b81565b9250506020610c0685828601610b81565b9150509250929050565b600080600060608486031215610c2557600080fd5b6000610c3386828701610b81565b9350506020610c4486828701610b81565b9250506040610c5586828701610b96565b9150509250925092565b60008060408385031215610c7257600080fd5b6000610c8085828601610b81565b9250506020610c9185828601610b96565b9150509250929050565b600060208284031215610cad57600080fd5b6000610cbb84828501610b96565b91505092915050565b610ccd81610e6d565b82525050565b610cdc81610e7f565b82525050565b6000610ced82610dc7565b610cf78185610dd2565b9350610d07818560208601610ec2565b610d1081610f24565b840191505092915050565b610d2481610eab565b82525050565b610d3381610eb5565b82525050565b6000602082019050610d4e6000830184610cc4565b92915050565b6000602082019050610d696000830184610cd3565b92915050565b60006020820190508181036000830152610d898184610ce2565b905092915050565b6000602082019050610da66000830184610d1b565b92915050565b6000602082019050610dc16000830184610d2a565b92915050565b600081519050919050565b600082825260208201905092915050565b6000610dee82610eab565b9150610df983610eab565b9250827fffffffffffffffffffffffffffffffffffffffffffffffffffffffffffffffff03821115610e2e57610e2d610ef5565b5b828201905092915050565b6000610e4482610eab565b9150610e4f83610eab565b925082821015610e6257610e61610ef5565b5b828203905092915050565b6000610e7882610e8b565b9050919050565b60008115159050919050565b600073ffffffffffffffffffffffffffffffffffffffff82169050919050565b6000819050919050565b600060ff82169050919050565b60005b83811015610ee0578082015181840152602081019050610ec5565b83811115610eef576000848401525b50505050565b7f4e487b7100000000000000000000000000000000000000000000000000000000600052601160045260246000fd5b6000601f19601f8301169050919050565b610f3e81610e6d565b8114610f4957600080fd5b50565b610f5581610eab565b8114610f6057600080fd5b5056fea26469706673582212206422779329bcd4a5a5cc0a5b240c418d3b528db3f9dd44bafc5ccf7094bfc5ef64736f6c63430008040033",
  "linkReferences": {},
  "deployedLinkReferences": {}
}